S01A0000626F6F6C6F616465722B737461636B2B6170702E73333776
S3150000B80000080020E9D00000E5D00000E5D00000E7
S3150000B810E5D00000E5D00000E5D00000E5D000004E
S3150000B820E5D00000E5D00000E5D00000E5D000003E
S3150000B830E5D00000B0EE0200E5D00000E5D0000043
S3150000B840E5D0000045650100E5D00000E5D0000028
S3150000B850ED5C0100B16501005165010069650100FB
S3150000B86049650100E5D00000E5D00000E5D0000004
S3150000B870E5D00000E5D00000E5D00000E5D00000EE
S3150000B880E5D00000E5D00000E5D00000E5D00000DE
S3150000B890E5D00000E5D00000E5D00000E5D00000CE
S3150000B8A0E5D00000E5D00000E5D00000E5D00000BE
S3150000B8B0B56501004D6501006541010029010100E2
S3150000B8C0F5650100E5D0000019410100E5D0000052
S3150000B8D0E5D00000E5D00000E5D00000E5D000008E
S3150000B8E0E5D00000E5D00000E5D00000E5D000007E
S3150000B8F0E5D00000E5D00000E5D0000010B5054C0D
S3150000B900237833B9044B13B10448AFF30080012305
S3150000B910237010BD98090020000000004026030097
S3150000B92008B5034B1BB103490348AFF3008008BDBC
S3150000B930000000009C09002040260300154B002B48
S3150000B94008BF134B9D46A3F5803A00218B460F4650
S3150000B9501348144A121A22F0E2FD0F4B002B00D0B6
S3150000B96098470E4B002B00D098470020002104007A
S3150000B9700D000D48002802D00C48AFF3008022F0DD
S3150000B98067FD2000290000F051FE22F04DFD00BFAA
S3150000B9900000080000080020000000000000000071
S3150000B9A098090020A84100200000000000000000C7
S3150000B9B038B5134B1B783BB900F0C0FA00F0C6F956
S3150000B9C0104B00221A7038BD0F4800F0B5FA0F4B25
S3150000B9D00F491A680F48002420231471137002249B
S3150000B9E00323142553709370D570547194710432E7
S3150000B9F00BF004FB00F0AAF9024B00221A7038BDC6
S3150000BA0000080020B409002028EE0200D01600200D
S3150000BA10D97D0200200303140F4B1B780BB1FFF7EF
S3150000BA20C7BF70B50D4A0E4C1268207813710126F7
S3150000BA30202580EA0603157015200325567095709B
S3150000BA40D07008490848237004320BF0D7FABDE8D5
S3150000BA507040FFF7ADBF00BFB4090020D01600202C
S3150000BA6000080020117E020020010315014B01226F
S3150000BA701A707047B40900202DE9F043DFF8B09042
S3150000BA80DFF8B080D9F80020D8F8005023492448C0
S3150000BA90032320270026012483B01770D370567025
S3150000BAA0947004320BF0AAFAAF881E4A3B4608216E
S3150000BAB0684622F003FE684622F034FEC5B2FB2D2E
S3150000BAC00FD9D8F800306FF075025C711A713846DC
S3150000BAD000F054F900F00EF900F004FC03B0BDE8E4
S3150000BAE0F083D9F800400B232572694623712A4654
S3150000BAF06671A671E67104F1090022F0ECFC0535C9
S3150000BB00094B0A492802224603EB152580B2284430
S3150000BB1042F8040B0BF072FAD9E700BFAD7F0200C2
S3150000BB202000010348EE020020000A02457E0200C2
S3150000BB30D0160020D416002003684D4A23F47F4314
S3150000BB4023F0070393427CD02DE9F04104460DD83B
S3150000BB50A2F58022934270D002F50032934237D18B
S3150000BB60B0F805301E2B7ED0BDE8F081414A9342E5
S3150000BB7034D002F1807293420CD1B0F80530132B09
S3150000BB80F2D1C379012BEFD101890079BDE8F041EB
S3150000BB9000F0CCBB384A9342E6D1FFF76DFF00F0C8
S3150000BBA0A1FBFFF705FF354B1B78002BDCD0344B90
S3150000BBB034491A683448012302252024157114706B
S3150000BBC053709370D370BDE8F04104320BF016BA8F
S3150000BBD0A2F510229342E0D0BDE8F081B0F805301E
S3150000BBE0212BC1D1DFF898800179D8F80020DFF841
S3150000BBF08CC011710425002120270A2053719070F2
S3150000BC009171D17117705570D57001262A441F495C
S3150000BC101F488CF800600BF0F1F9D8F80020237962
S3150000BC201371082317705670D570937019491A4806
S3150000BC302A44BDE8F0410BF0E1B9BDE8F041FFF759
S3150000BC4015BF0379032B03D8DFE803F00B090703BD
S3150000BC507047124B00201B68184700F0B1BBFFF776
S3150000BC60A7BE00F0BBB80A30BDE8F04100F0B2BB99
S3150000BC70A0000C00A0000A02A0000801B5090020DF
S3150000BC80D0160020ED7F020020010101797E02001E
S3150000BC9020040A040D80020020010804B8090020CF
S3150000BCA00D4B0E491B6870B50860032000241872FE
S3150000BCB0202606250C2098704FF400411E70B1FB1B
S3150000BCC0F2F25D705A605C72DC701A1D0449054818
S3150000BCD00BF094F9204670BDD0160020B80900205C
S3150000BCE0197D020020060C00012800D07047FFF7DE
S3150000BCF093BE00BF08B5074800F022F80022802155
S3150000BD00054801F0DDF800B108BD0448BDE808406B
S3150000BD1000F012B9E9BC000000C0004050EE02007D
S3150000BD2000B583B002AA002342F8043D80210346F1
S3150000BD30024801F099F803B05DF804FB00C000402A
S3150000BD40014B1860704700BFBC090020014B024A36
S3150000BD501A607047040A002040080020014B024A7E
S3150000BD601A607047040A002038080020014B024A76
S3150000BD701A607047040A002010080020124B13496D
S3150000BD801A6870B56FF03303202513711570104CC7
S3150000BD900646062300200C25537055719570907148
S3150000BDA0D07110725072D07004320A480BF026F926
S3150000BDB033462046084A402122F080FC2046BDE852
S3150000BDC0704000F051B900BFD0160020197D020066
S3150000BDD0C009002020060C0070EE02004B4B70B527
S3150000BDE01B684B4C2168002B64D08B42494D38D0E0
S3150000BDF0002223602A701B689B5C0120002B37D031
S3150000BE0000F09AFC23682A781B6803EB42035878F3
S3150000BE1000284CD0002000F08FFC2B7822680133DC
S3150000BE201179DBB299422B709CBF00232B703A4BE1
S3150000BE309A4204BF00232360384B39491A68394BAC
S3150000BE400C6819783ABB00293BD037491A700A802A
S3150000BE50364B1A787CB9002A3FD0354A1C701480BC
S3150000BE6070BD2A781B68520001209B5C002BC7D14D
S3150000BE7000F048FCC6E7002AF2D12D4A2D49128867
S3150000BE800C68132A4FF0010119702BD823460520A0
S3150000BE90BDE8704018470029DAD1234A12880120EC
S3150000BEA0132A187025D8234B1B689847D0E700F053
S3150000BEB029FCB2E70029BFD0164D2A780B4652005E
S3150000BEC099E7194A138801339BB2312B1380BFD9E6
S3150000BED0184B03201B689847BAE7154A13880133A5
S3150000BEE0138070BD312A0BD923460720BDE8704068
S3150000BEF01847312AACD80F4B02201B689847A7E792
S3150000BF0023460620BDE87040184700BF040A0020FB
S3150000BF10040800200C0A0020400800209821144242
S3150000BF209C21144248080020080A002049080020E5
S3150000BF300A0A0020BC09002000F0B8B82DE9F0413B
S3150000BF40DFF894801E481F4CFFF7F6FFD8F8005024
S3150000BF5000271E23AB712F716F710FCCC5F8070038
S3150000BF60C5F80B10C5F80F20C5F8133007CCC5F877
S3150000BF701700C5F81B10C5F81F202388A5F8233025
S3150000BF8003240C23202621226A70EB702A1D2E70B2
S3150000BF90AC700D490D480BF031F8D8F800200C496B
S3150000BFA01771042014239771167054709470507191
S3150000BFB0D370BDE8F041024406480BF01FB800BF3D
S3150000BFC0F0EE02004C080020A57D02002021030CA3
S3150000BFD0D97D020020030314D01600202DE9F0437A
S3150000BFE01F4D03781F4E83B001464FF000090A2B00
S3150000BFF00C4624D00BB922E01BB114F8013F0A2BE2
S3150000C000FAD1621AD2B2D2B195F8268095F825E017
S3150000C01095F824302F683078B7F800C0CDF8049032
S3150000C020C64413FB02F30EFB0080DBB2C0B2ACEBDE
S3150000C03003030090C3F34703094803F0DFFD2378A9
S3150000C0400A2B05D02146002BD1D103B0BDE8F083E1
S3150000C0503278637801323270611C002BC7D1F4E765
S3150000C060500A00207C0A002038B5054600F07EFB09
S3150000C07000B1FEE703F08EFB00B1FEE7084C204658
S3150000C08003F086FC034600B1FEE76FF07F422046D0
S3150000C0900449C4E9012303F003FE034B1D6038BDC8
S3150000C0A0500A002034F402004C0A002010B5044661
S3150000C0B0084803F013FC084A084B106800221A705F
S3150000C0C0FFF78CFF2046FFF789FFBDE8104003F01D
S3150000C0D09DBB00BF500A00204C0A00207C0A0020AD
S3150000C0E02DE9F04395B005A8FFF71AFE002800F0E9
S3150000C0F0AF806F4C6F48216801F57A7280FB023081
S3150000C100D317C3EB203301F59C4145F208202031BB
S3150000C11000FB1323236005910B46674C674D227B7A
S3150000C120674ED00767484FEAE37C80FB017E4FEA03
S3150000C130E17880FB0370C8EB6E1E48BF21F07F429A
S3150000C140CCEB601085FB017186FB0E79C8EBA11163
S3150000C1504FEAEE7786FB00684FEAE076C7EBA90761
S3150000C160C6EBA80606EB860607EB870758BF23F043
S3150000C1707F42AEEB4707A0EB460085FB03E3CCEB23
S3150000C180A31342F07D42C9B2C0B2FFB2A260DBB2D5
S3150000C1904D4A0090CDE901170BA8252122F08EFA11
S3150000C1A00BA8FFF7C9FE494AE3899679A5FB031355
S3150000C1B006EB931392E80300DBB23B2B84E8030003
S3150000C1C055D9517900233B2993719CBF4B1CDBB297
S3150000C1D05371A368217B8DF819301A0A8DF81A203D
S3150000C1E00122180C62731B0E8A078DF81B008DF84E
S3150000C1F01C308DF8181028D523882279A578E07888
S3150000C2008DF823608DF81D301E0A63798DF8212084
S3150000C2108DF81E608DF81F508DF820008DF82230A5
S3150000C22009AA4B0702D5012313701A4406A9521A0C
S3150000C230D4B2FC2C1DD9264B1B686FF07501012268
S3150000C24019715A7115B0BDE8F0830DF11D02E8E7CA
S3150000C250059B1B4903EBC302520002F59C2202F523
S3150000C260007281FB0201D217C2EBA10155E793715F
S3150000C270AFE7184A184B15681878EC71002313229B
S3150000C28028716A71AB71224605F1080022F023F984
S3150000C2900434124B124920022A4603EB142480B2BE
S3150000C2A0204442F8040B0AF0A9FE15B0BDE8F0835D
S3150000C2B0800A002009A4EE3184080020D34D6210C4
S3150000C2C0676666661F85EB5128F202007C0800202F
S3150000C2D0D4160020D01600207A08002020000A0577
S3150000C2E0AD7E02000D4B0E491A680E4830B401238C
S3150000C2F00225537206230C4C157253702025002319
S3150000C300157013710C2553719371D371D370FF237C
S3150000C31095702370043230BC0AF070BED01600202F
S3150000C320197D020020060C007A08002070B509B3BA
S3150000C3301D4BFF28187001D0FFF7D2FE1B4B1C4C7B
S3150000C340DB891C4A1C4912681C48DB03A4FB034317
S3150000C3509B090224202653600625147200230C2410
S3150000C3601670557094705372D370BDE870400432E5
S3150000C3700AF044BE0F4A114812680B460224137194
S3150000C380012653719371D371D370202514720C2337
S3150000C3900624567215705470937007490432BDE82E
S3150000C3A070400AF02BBE00BF7A08002084080020E7
S3150000C3B0D34D6210D0160020197D020020060C0015
S3150000C3C0034B1B78FF2B00D17047FFF789BE00BFD8
S3150000C3D07A08002008B54378012B0FD0022B06D12E
S3150000C3E00A48FFF7A9FDBDE80840FFF7BFBC0848AB
S3150000C3F0FFF7A2FDBDE80840FFF7A8BC0548FFF718
S3150000C4009BFDBDE80840FFF7A9BC00BF80F2020013
S3150000C41050F202006CF2020030B50B4D87B000F00E
S3150000C4203DF90FCD6C460FC495E8030084E8030080
S3150000C430684600F0D9FB012304220F21032002F0F5
S3150000C44005FC07B030BD00BF98F202000023184675
S3150000C4500422052102F0FABB08B50121094801F0C2
S3150000C46019F80121084801F015F80121074801F0E3
S3150000C47011F800F025FC00F09FFCBDE8084000F034
S3150000C48071BC00BF00A2040000450A0000350A0086
S3150000C490534B70B501225A641A688CB042F480720C
S3150000C4A01A6007A802F080FF9DF81D30012B40F2AC
S3150000C4B090804C484C4A4D494D4B4E4C4FF41875A4
S3150000C4C0056014604C484D4A08601A604C4E96E868
S3150000C4D00F0003AC84E80F0006F11005204602F0B9
S3150000C4E01DFB0FCD07AC0FC4464B2A685B68228044
S3150000C4F01B0369D5444B1B884FF6FF72934208BF56
S3150000C50040F24F13ADF8223007A801F019FE3F485C
S3150000C51000F048FE3D4800F045FE0122114602208B
S3150000C52001F074FB0421112001F028FC00221146C1
S3150000C530032001F06BFB0121354800F0ABFF736A65
S3150000C540079307A820238DF81C3001F037FE4FF41F
S3150000C550004000F061FE02212E4801F00FFC02218E
S3150000C5602D4801F00BFC02212C4801F007FC2C4B56
S3150000C57093E8070007AB03C30024012107A81A703C
S3150000C5808DF81C108DF81D408DF81E408DF81F404B
S3150000C5908DF820408DF8224002F0D4FE0CA800F859
S3150000C5A02C4D02F019F9022302A88DF809308DF8F6
S3150000C5B0084002F021F91B4A136823F4E06343F4B0
S3150000C5C0007313600CB070BD174B1B88ADF822309A
S3150000C5D09AE79DF81C30022B3FF66BAF76E700BF5B
S3150000C5E000000E408C420E4090420E40F0420E403B
S3150000C5F0F8420E409A6F05001801000400843208C4
S3150000C600B0F20200B081E00F0001E00F00F0490235
S3150000C61000250A0002001E00030020000500240079
S3150000C620D8F2020000500E40B881E00F08B5FFF7BF
S3150000C6302FFFFFF711FFFFF7EFFEFFF707FF00F0F1
S3150000C64045F801231A460621052002F0FFFA0123C8
S3150000C65005201A46072102F0F9FA0F480AF0E4FA13
S3150000C66020B10AF0C9FAFFF767FAFAE71CF03AFABE
S3150000C6701CF06EFA1CF03FFA1CF073FA1CF044FA38
S3150000C6801CF04BFA1CF01CFA1CF050FA1CF021FAB4
S3150000C6901CF055FAE5E700BFE4F2020030B50A4D9A
S3150000C6A00FCD87B001AC0FC42B68236001A94FF0F2
S3150000C6B0FF3003F059FD20B901214FF0FF3003F0A0
S3150000C6C056FD07B030BD00BF30F3020008B50121AA
S3150000C6D00A4800F0DFFE0121094800F0DBFE0422D3
S3150000C6E011460023052002F0B1FA05210846002371
S3150000C6F0042202F0ABFA002008BD00BF404105004D
S3150000C70000350A0001280FD8094A0A4912F83030C4
S3150000C71002EBC00203EB43031B01526819440123D9
S3150000C72093400B60002070474FF0FF30704700BF0A
S3150000C73044F302000CA0004401280FD8094A0A4914
S3150000C74012F8303002EBC00203EB43031B015268C0
S3150000C7501944012393400B60002070474FF0FF30CF
S3150000C760704700BF44F302000CA000460A4A137843
S3150000C7707BB910B5094C2368012111702BB9002033
S3150000C78010BD54F8043F002BF9D098470028F8D084
S3150000C79010BD0020704700BFB40A00209408002096
S3150000C7A0124B1B78FBB1002802DD114B184670476F
S3150000C7B0F0B4104C2C2303FB00440D4604F1200773
S3150000C7C026460FCEBE4228606960AA60EB603446FA
S3150000C7D005F11005F4D107CC002328606960AA6032
S3150000C7E01846F0BC7047044B18467047B40A002040
S3150000C7F002001180840A002005001180134B1B786B
S3150000C8000BB3134A1368002B01DD12487047F0B4CE
S3150000C810114D0446591C2C2004F1200700FB03553A
S3150000C820116020686168A268E3682E460FC610345E
S3150000C830BC423546F5D120686168A268334607C315
S3150000C8400020F0BC70470548704700BFB40A0020BE
S3150000C850B00A002001001180840A00200500118022
S3150000C86080290DD10A49086810B40A4C00EB02125F
S3150000C870A24207D818600A6000205DF8044B704792
S3150000C88005487047002205481A605DF8044B70475A
S3150000C8909C080020B81200200200118001001180BF
S3150000C8A0004870470400118008B500F043F900F015
S3150000C8B0F1F8002008BD00BFF8B5067C012E14BFB4
S3150000C8C0FF26002663B10C461F460025204601358B
S3150000C8D01022314621F023FEAF4204F11004F5D1B7
S3150000C8E00020F8BD2DE9F04782B0DDE90A570C4675
S3150000C8F003200E21013500F04DF9ADB2062000F0FF
S3150000C9001FF902AE2B0243F0010326F8023D022175
S3150000C910304600F0E7F80FB3013507F1FF384FF066
S3150000C920000A4FF6FF791021204600F0DBF8D045CB
S3150000C93005EB0A031CBF1B0243F0FF034FF0020185
S3150000C9400AF1010A30460CBFADF80690ADF8063084
S3150000C95000F0C8F8574504F11004E4D1022000F0B5
S3150000C960EFF80E21032000F023F9002002B0BDE805
S3150000C970F08700BF08B50D21032000F027F900203D
S3150000C98008BD00BF08B529B90F21032000F010F932
S3150000C990002008BD0F21032000F0FCF8002008BD90
S3150000C9A070B58CB000F0C6F800F074F800F0DAF854
S3150000C9B000231A460821022000F0DEF800231A465A
S3150000C9C00621022000F0D8F800231A460E21032083
S3150000C9D000F0D2F800231A460F21032000F0CCF80D
S3150000C9E000231A460D21032000F0C6F8402200213C
S3150000C9F0204800F0ABF8044610B120460CB070BDDC
S3150000CA001D4B1E481E490193012280238DF81420D8
S3150000CA101C4E1D4A1D4D0293CDE9033306901C4B57
S3150000CA208DF8154001A8CDE90765CDE909120B93EC
S3150000CA30FFF7E4FE04460028DFD10F21032000F0B3
S3150000CA40A9F80E21032000F0A5F8062000F078F8DA
S3150000CA500CA8042320F82E3D022100F043F8022002
S3150000CA6000F06EF80E21032000F0A2F820460CB06C
S3150000CA7070BD00BF75C9000054F3020085C90000EF
S3150000CA80E5C8000061C80000B9C80000A1C80000E0
S3150000CA90A9C8000070B50F4D0F4E0FCD86B06C467D
S3150000CAA00FC495E8030084E8030001210B4800F059
S3150000CAB0F1FC30460A4B0293694602F08FFC0A23CA
S3150000CAC07367B36F23F01F2343F00B230020B36774
S3150000CAD006B070BD6CF30200000401400042040081
S3150000CAE040420F00E9B170B5114E05460C46012CC7
S3150000CAF0304601D0EB070CD5013C15F8011B02F0BE
S3150000CB0013FD002CF3D10A4A13699906FCD50020BF
S3150000CB1070BD35F8021B023C02F00CFD002CE6D17C
S3150000CB20F1E7034A13699B06FCD50020704700BF56
S3150000CB300004014008B500F0EBF9002008BD00BF75
S3150000CB4008B500F0BBFA002008BD00BF08B5FFF726
S3150000CB50A7F8034B002814BF1846002008BD00BFE5
S3150000CB600200138008B50121024800F093FC002062
S3150000CB7008BD00BF00350A003AB910B5C0B2144668
S3150000CB80042202F063F8204610BD0148704700BF3A
S3150000CB9001001380C0B200EB4000044B00010344C7
S3150000CBA0012202FA01F11960002070470CA000462C
S3150000CBB0C0B200EB4000044B00010344012202FA1C
S3150000CBC001F11960002070470CA00044C0B200EBD0
S3150000CBD04000000100F1804000F52040012303FAE7
S3150000CBE001F181610020704770B5044684B00121CF
S3150000CBF0254800F04FFC2368244A934242D002F5B0
S3150000CC008062934201D004B070BD2148012100F03A
S3150000CC1041FC01230A226179207902F017F80123E9
S3150000CC200A22E179A07902F011F82379194803EB79
S3150000CC3043031B01184400F1C065092200F180601E
S3150000CC400121637901FA03F32B606379013A01FA52
S3150000CC5003F30360F5D12068267D8DF800100323C9
S3150000CC60D4E90325436423898DF801105BBA9BB28E
S3150000CC7083646946CDE901258DF80C6002F07AF8E7
S3150000CC8004B070BD0448C1E74041050000C0004043
S3150000CC90007204000CA000400062040038B505468E
S3150000CCA002F0A0F9012808D1044C01E0013C04D0AF
S3150000CCB0284602F07BF80128F8D038BDE09304003E
S3150000CCC070B5224D224E0FCD88B002AC0FC495E848
S3150000CCD0030084E8030001211E4800F0DBFB01216C
S3150000CCE01D4800F0D7FB01241C4B0493304602A9D3
S3150000CCF08DF8164002F072FB23460422062102201C
S3150000CD0001F0A4FF224600230721022001F09EFF26
S3150000CD10234604220821022001F098FF042223461C
S3150000CD201146002001F092FF0D4BB3670B2249F22A
S3150000CD303D6372670193019B002B05DD019B013B5F
S3150000CD400193019B002BF9DC08B070BD84F302004F
S3150000CD500004014000350A000042040040420F0072
S3150000CD600B0B000B002310B51A460621022001F01A
S3150000CD706DFF00231A460721022001F067FF0123F9
S3150000CD8000220821022001F061FF094C0022104612
S3150000CD900123042101F05AFF204602F08FFB0023F5
S3150000CDA0A367194663670348BDE8104000F072BBED
S3150000CDB0000401400042040038B5144B144D102203
S3150000CDC01A601424FF21284602F0A4FB013CF9D185
S3150000CDD0104B0F4D10221A601E24FF21284602F028
S3150000CDE099FB013CF9D10524FF21094802F092FB89
S3150000CDF0013CF9D1054B064810251D60B92102F00A
S3150000CE0089FB044B20461D6038BD00BF0CA00044C2
S3150000CE10000401400CA0004670B588B008ACADF81F
S3150000CE200C1004F81C3D0421012602AB0494ADF855
S3150000CE300E10022403A91546ADF814600693ADF84A
S3150000CE401C40FFF72BFF18B100232B6008B070BD04
S3150000CE509DF809309DF8082003F0FC0303EB02233C
S3150000CE6020462B6008B070BDF8B51C46E523064683
S3150000CE700F461546FFF7D0FF02281DD12A6843F654
S3150000CE80095303FB02F35B0BA3F5BB53103B2B606B
S3150000CE9039463046E0232246FFF7BEFF02280BD173
S3150000CEA0226845F2CD5303FB02F35B13A3F5374328
S3150000CEB0023B23600020F8BD4FF0FF30F8BD00BFF5
S3150000CEC070B588B008AB4CF6FC1423F8204DADF8CD
S3150000CED00C1004210DEB010402250493ADF80E108D
S3150000CEE0082303A91646ADF814500694ADF81C3075
S3150000CEF0FFF7D4FE30B946B19DF8043033700120F7
S3150000CF0008B070BD002008B070BD012008B070BD2B
S3150000CF102DE9F04F614B624C93E8070087B003ABF5
S3150000CF2003C3D4F8B0101A704A0740F1B0804FF02E
S3150000CF3000085C485A4C00F071FB0321074659482B
S3150000CF40D4F8905000F01AFF574800F061FBD4F86F
S3150000CF50F030DB0705F04005824640F191804FF046
S3150000CF60000901F055F9514B1C6814F00104834681
S3150000CF707DD01A68019200225C6A4D491A605A6295
S3150000CF8040F2FF721A624FF00043C1F88031012669
S3150000CF900023082203A88DF80E308DF80F308DF887
S3150000CFA0102002F0CFF94349404A4FF480530B60FA
S3150000CFB00B685B000B6053B1906893689842FCD095
S3150000CFC090680B68013BFDD893689842F0D00B68D7
S3150000CFD0364A5B080B60D1F800C04FF0080E5FEAD6
S3150000CFE05C0C15D00B6843EA0C030B6090689368E1
S3150000CFF09842FCD090680B68013BFDD89368984234
S3150000D00003D00B6823EA0C030B60BEF1010EE6D1D8
S3150000D010584601F001F9BEB15146234800F0CEFD55
S3150000D020224B019A1A605C62B9F1000F12D1032FEC
S3150000D03016D1FDB1B8F1000F03D000211E4800F053
S3150000D04029FA07B0BDE8F08F304602F075F9B9F15C
S3150000D050000FECD00021144800F01CFA032FE8D092
S3150000D0603946104800F08AFE002DE3D102E0019413
S3150000D07026468DE72A462946012000F0C7FDD9E756
S3150000D0800121094800F006FA4FF0010969E701217C
S3150000D090094800F0FFF94FF001084AE79CF3020047
S3150000D0A000400E4005002400A009140000200440A2
S3150000D0B000E100E0A008002000250A000346084918
S3150000D0C0002B0CD0013B88221202003253430A681F
S3150000D0D0D80AD20A5043800901D00138FDD87047DA
S3150000D0E0A0080020FEE700BF08B500F079F8064B5F
S3150000D0F00648834206D2064A52F8041B43F8041B2C
S3150000D1009842F9D8FEF71AFC00080020980900207A
S3150000D1104C2603000048704700F04902114BD3F833
S3150000D120943003F00703023B032B18D8DFE803F023
S3150000D1300D0214104FF400400A4BD3F80031C3F32C
S3150000D14004230133B0FBF3F07047074B1868F3E78D
S3150000D150064B18684008EFE7054B1868ECE7034BE9
S3150000D1601868E9E700400E40A8080020AC08002037
S3150000D170B008002008B5FFF7D1FF054B054AD3F8E4
S3150000D1800831C3F308230133B0FBF3F0106008BD88
S3150000D19000400E40A4080020014B1868704700BFED
S3150000D1A0A808002008B50B4B0B491860D1F894303D
S3150000D1B003F00703022B00D008BDFFF7AFFFD1F83D
S3150000D1C00831064AC3F308230133B0FBF3F01060BD
S3150000D1D008BD00BFA808002000400E40A40800209B
S3150000D1E0044B054A9A60D3F8882042F47002C3F8CB
S3150000D1F08820704700ED00E000B800004FF40040C2
S3150000D200704700BF4FF47A70704700BF014B186833
S3150000D210704700BFB008002008B50B4B0B491860DB
S3150000D220D1F8943003F00703042B00D008BDFFF7B4
S3150000D23075FFD1F80831064AC3F308230133B0FB62
S3150000D240F3F0106008BD00BFB008002000400E409B
S3150000D250A408002008B5034B1B6803B198470120BA
S3150000D26008BD00BFBC12002038B5124D2B6804461D
S3150000D2700BB1984768B1631E032B05D8DFE803F0AE
S3150000D2800A11150201F006FA6B6820460BB19847A1
S3150000D290204638BD084A136923F00403136130BFE2
S3150000D2A0F2E7002001F08CF9EEE7002001F0B2F978
S3150000D2B0EAE700BFC012002000ED00E00B4A0C4B6D
S3150000D2C070B510600B4C0C4D00221A80C4E9005159
S3150000D2D001F0E6FFC30300D470BD01F0DBFF636815
S3150000D2E0002BF9D00420BDE870401847BC1200207E
S3150000D2F0B8120020C012002055D200002DE9F041DE
S3150000D300184D00F07DFF2B78804613B901F0BEF969
S3150000D3102B78154F002483B96B78002B14BF02209D
S3150000D3200320FFF7A1FFBB6806460BB198470446EA
S3150000D330E30704D52B78002BEED00120F1E7B31ECE
S3150000D340DBB2012B05D9404600F05EFF3046BDE852
S3150000D350F08101F09DF9404600F056FF3046BDE8E9
S3150000D360F08100BFB8120020C01200200238C3B2FC
S3150000D370012B03D8024A135C01331354704700BFD4
S3150000D380B81200200238C3B2012B00D97047034AF5
S3150000D390135C002BFAD0013B13547047B8120020DF
S3150000D3A0054B1A782AB95B78002B0CBF03200220A4
S3150000D3B070470120704700BFB812002010B4134B0D
S3150000D3C0134A5B680024C9B28C42234608D0013355
S3150000D3D0052B02F1080215D012F8084C8C42F6D142
S3150000D3E052F80C4C8442F2D30A4A02EBC3035B792F
S3150000D3F01A0606495DF8044B4B6823F04073134345
S3150000D4004B6070474FF04072F3E700BF00000E40DC
S3150000D410CCF30200C0F3020038B5074C41F6713375
S3150000D420256C2364FFF776FE0021FFF7C7FF0DB1D9
S3150000D4300023236438BD00BF00000E400C4A0D4B8C
S3150000D440D2F89010516A21F0300141F0100110B469
S3150000D4505162146BC0F3C311033123400F2928BF57
S3150000D4600F21034343EA017313635DF8044B7047CE
S3150000D47000400E4000F8FF0F38B5054C41F67133F9
S3150000D480256C2364FFF79AFF0DB10023236438BD92
S3150000D49000000E40C0F30323013B30B4092B0CD827
S3150000D4A0DFE803F00D110B0B152D190B2705164C94
S3150000D4B0C0F3043020448000016030BC7047C0F3E4
S3150000D4C00430124CF6E7C0F30430114CF2E7C0F317
S3150000D4D00430104CEEE7104CC0F3043010250F4B0F
S3150000D4E0D3F84421D207E5D4D3F840212A42FBD110
S3150000D4F0E0E7C0F304300A4C4FF48035EFE7C0F3A1
S3150000D5000430084C0125EAE7800AF2100000F21008
S3150000D5100006F2108005F2104007F21000400E409F
S3150000D5208007F2100007F210C0F30313013B092B2A
S3150000D5304FD8DFE803F00E141A204E4E262C3B057A
S3150000D5402E4B984245D12E4BD3F8300100F0030004
S3150000D55070472B4BD3F80001C0F304207047284BCB
S3150000D560D3F81401C0F304207047254BD3F800010B
S3150000D570C0F300607047224BD3F80C01C0F30820BB
S3150000D58070471F4BD3F80801C0F3082070471D4BA6
S3150000D590984229D01C4B98421BD1194BD3F8203105
S3150000D5A00120C3F30113984001387047174B984286
S3150000D5B011D003F5B01303F58053984209D1104BEF
S3150000D5C0D3F82801C0F30120031D0120984001383B
S3150000D5D07047002070470A4BD3F828310120C3F367
S3150000D5E00113984001387047054BD3F820310120CC
S3150000D5F003F00F0398400138704700BFA0091400DC
S3150000D60000400E408006160080162E0090171A0065
S3150000D61008B5FFF789FF013008BD00BF00F00F0015
S3150000D6200138072847D8DFE800F0121D3346283EA8
S3150000D6304604264BD3F85C3103F03003202B40D050
S3150000D640302B40D0102B0CBF0720012070471F4BFA
S3150000D650D3F8943003F00703023B052B2FD81C4A5E
S3150000D660D05C7047194BD3F8803003F00703013BB9
S3150000D670042B22D8174AD05C7047144BD3F8883055
S3150000D68003F00703013B042B17D8134AD05C7047FD
S3150000D6900E4BD3F8843003F00703013B042B0CD860
S3150000D6A00E4AD05C7047094B1B6F13F0010F14BF75
S3150000D6B00920072070470020704701207047052089
S3150000D6C07047042070470820704700BF00400E4096
S3150000D6D0A8F30200B0F30200B0F30200B8F30200B0
S3150000D6E008B50146FFF79AFF1E4B99421FD01E4B05
S3150000D6F0994216D01D4B99420DD00138042808D8FE
S3150000D700DFE800F003281B2C0300BDE80840FFF704
S3150000D71075BD002008BD164BD3F8800000F0070049
S3150000D720EBE7134BD3F8880000F00700E5E7104B52
S3150000D730D3F8840000F00700DFE7FFF7EFFC0C4B9F
S3150000D740D3F80031C3F300635A1C01239340B0FBA6
S3150000D750F3F008BDBDE80840FFF758BDBDE8084036
S3150000D760FFF750BD030020000500240002001E0044
S3150000D77000400E4000F47810B0F5A01F08B500F088
S3150000D78098801BD9B0F5001F33D054D9B0F5381F97
S3150000D79034D066D9B0F5401F6BD0B0F5481F1AD10A
S3150000D7A05B48FFF73BFF072842D0082800F0A5801A
S3150000D7B0042810D1BDE80840FFF7EEBCB0F5202FD5
S3150000D7C013D00AD9B0F5602F2DD0B0F5801F2FD019
S3150000D7D0B0F5402F1CD0002008BDB0F5003F7DD02D
S3150000D7E0B0F5802F6FD00028F5D1BDE80840FFF7CF
S3150000D7F095BC4848BDE80840FFF772BF4648FFF7AA
S3150000D8006FFF464BD3F82031C3F30113D84008BD50
S3150000D810FFF784FC414BD3F81431C3F304230133DF
S3150000D820B0FBF3F008BD3E48FFF7F8FE072860D1CD
S3150000D8303C4B186808BDB0F5D01F2DD0B0F5F01FD1
S3150000D84025D0B0F5B01FC6D13348FFF749FF334B9B
S3150000D850D3F82021012302F00F029340B0FBF3F02E
S3150000D86008BDB0F5101FB6D12F48BDE80840FFF738
S3150000D87037BF2848FFF734FF284BD3F82831C3F3C6
S3150000D88001231A1D01239340B0FBF3F008BD224883
S3150000D890BDE80840FFF724BF1E48FFF721FF1F4BD6
S3150000D8A0D3F828210123C2F301129340B0FBF3F011
S3150000D8B008BD1D48FFF714FF184BD3F8303103F0AD
S3150000D8C00303D84008BDFFF729FC144BD3F80C31ED
S3150000D8D0C3F308230133B0FBF3F008BDFFF71EFCCA
S3150000D8E00E4BD3F80831C3F308230133B0FBF3F032
S3150000D8F008BD09287FF46FAF77E7FFF70FFC074BEA
S3150000D900D3F80031C3F3042303FB000008BD00BFB6
S3150000D910B80032000300200002001E0000400E4046
S3150000D92006000E00B40800200500240038B5C0F338
S3150000D9300313013B0C46092B48D8DFE803F00559D1
S3150000D940476347476F90A348FFF766FD8E4A8F4BA4
S3150000D95001211160D3F8002142F08072C3F8002142
S3150000D960D3F8001121F4F85141EA0424C3F8004128
S3150000D970FFF700FC864B1B685D0640F1C080854BB7
S3150000D980854C5968256C41F67133C1F30141236416
S3150000D990FFF714FD0DB1002323648048FFF7EAFE6C
S3150000D9A07F4B984240F294807E4B012498428CBF74
S3150000D9B04FF000734FF080737349744A0C60D2F8CD
S3150000D9C0000120F080701843C2F8000138BD764B84
S3150000D9D09842FBD16D4BD3F84421D1076FD56B4BE1
S3150000D9E0D3F8301121F003010C43C3F8304138BDA0
S3150000D9F0664BD3F8141121F4F85141EA0424C3F814
S3150000DA00144138BD614BD3F80C1121F4FF3121F4D8
S3150000DA10807141EA0421C3F80C1138BDFFF7FCFC04
S3150000DA20594A5A4B01211160D3F8002142F0807205
S3150000DA30C3F80021D3F8081121F4FF3121F48071D5
S3150000DA4041EA0421C3F80811FFF794FB504B1B6809
S3150000DA505C0694D4554A1368002BFCD18FE7544BCF
S3150000DA60984265D0534B98424ED04F4B9842ADD119
S3150000DA70464BD3F84421D107B1D4D3F84021520301
S3150000DA80FBD4ACE74C4B984225D003F5B01303F515
S3150000DA90805398429AD13D49D1F84401631CB3FAA8
S3150000DAA083F3C407C3F11B0255D53849D1F8283191
S3150000DAB023F4407343EA0223C1F8283138BDD3F872
S3150000DAC0402152038BD5D3F840215203F7D486E781
S3150000DAD000231C4670E72D49631CD1F84401B3FAB4
S3150000DAE083F3C3F11F02C3073BD52849D1F8283178
S3150000DAF023F0300343EA0213C1F8283138BD2B4A1C
S3150000DB001368002BFCD13AE72049D1F84401631C85
S3150000DB10B3FA83F3C007C3F11F0228D51B49D1F816
S3150000DB20203123F0300343EA0213C1F8203138BD17
S3150000DB301649D1F84401631CB3FA83F3C507C3F150
S3150000DB401F021AD51149D1F8203123F00F031343D0
S3150000DB50C1F8203138BD0B46D3F840114806FBD436
S3150000DB60A3E70B46D3F840114D06FBD4BDE70B46A1
S3150000DB70D3F840114907FBD4D0E70B46D3F8401140
S3150000DB804C07FBD4DEE700BF4000C84300400E4010
S3150000DB903C300E4000300E4000000E4000250A00CA
S3150000DBA00048E8010090D003A0091400C800C6434D
S3150000DBB08006160080162E0090171A000139FFF70E
S3150000DBC0B5BE00BF0F4B5B6A13F0300F06D020299D
S3150000DBD014D0302902D009B10B4A01E04FF44002BB
S3150000DBE00849D1F8903032EA0303FAD1530246BF0E
S3150000DBF0D1F8A000C0F38020012070474FF4000246
S3150000DC00EEE700BF00400E40FFF3E17F2DE9F04153
S3150000DC10074682B00E469046072819D8DFE800F07E
S3150000DC20514C58474218181B504B2B449B0000265A
S3150000DC304F4A14661A68002AFCD0B8F1000F07D0C4
S3150000DC404A4D0544AD002B68002BFCD0022F5AD05C
S3150000DC5002B0BDE8F08101A801F0A6FB9DF80530F1
S3150000DC60012B4BD94FF400434FF480440E250F206F
S3150000DC70002ED9D13E4901220B6602FA05F50B4664
S3150000DC80D3F890202A42FBD1B8F1000FE0D001234F
S3150000DC90374A03FA00F0D2F890300342FBD102B0C3
S3150000DCA0BDE8F0812023102404250520E0E70124A7
S3150000DCB0204602230025DBE7802340240625072093
S3150000DCC0D6E74FF400734FF4807408250920CFE798
S3150000DCD0002946D026494B6A13F0300F38D1254B20
S3150000DCE0DB6B4B6ADB072FD54A6A234B22F03002E7
S3150000DCF042F010024A620424032099E79DF804309A
S3150000DD00022BAFD8FEE7002EA2D0194A516A11F0B5
S3150000DD10010122D04FF480632021C2F8A830384692
S3150000DD205166FFF74FFF124ED6F89C700122002174
S3150000DD300220FFF76BFFC7F30A00FFF77FFB34668D
S3150000DD402B68002BFCD083E70B4B042403206FE7E2
S3150000DD50094B0424032000266AE73846FFF732FF02
S3150000DD60E1E708230225032084E700BF8004F210C0
S3150000DD7000400E4000300E400812C843112870B50E
S3150000DD800C460DD000F00F000138072807D8DFE851
S3150000DD9000F00C6A6C063F61062904232B6070BDF7
S3150000DDA0042900F09B80052961D00025023C0A2C3D
S3150000DDB0F5D801A353F824F0F1DF0000B9DF000025
S3150000DDC0BFDF0000D9DF00009FDD00009FDD0000FF
S3150000DDD09FDD00009FDD00009FDD000031DF0000B9
S3150000DDE0F7DF00004C1E072CD9D801A353F824F006
S3150000DDF01BDF00009FDD00009FDD00000DDF00003F
S3150000DE009FDD00009FDD0000FFDE0000EBDE00006E
S3150000DE10824D013C0C2CC2D801A353F824F000BF5C
S3150000DE20D9DE0000CBDE0000BDDE00009FDD000075
S3150000DE309FDD000091DE00009FDD00009FDD0000F9
S3150000DE409FDD00009BDD00009FDD00009FDD0000E0
S3150000DE5083DE0000072900F0D38009299FD1704B8B
S3150000DE6001221A6770BD6F4DD3E76F4DD1E76F4A38
S3150000DE706F4B15689D4298D90021284600F0A2FCF8
S3150000DE8094E7012211460720FFF7C0FE052385E728
S3150000DE90FFF770F9674B984241D800200146664B60
S3150000DEA05F4A1960D2F80031644923F08073034356
S3150000DEB00120C2F80031032308606FE701221146F2
S3150000DEC01046FFF7A3FE012368E701221146002052
S3150000DED0FFF79CFE022361E700235FE7FFF75CF98B
S3150000DEE0054600283FF461AFC6E730214C4AD2F818
S3150000DEF05C3123F030030B43C2F85C3170BD012264
S3150000DF0011460420FFF782FE1021EFE70122114699
S3150000DF100220FFF77BFE2021E8E70021E6E7484BD9
S3150000DF20012198428CBF4FF000704FF08070B6E729
S3150000DF300320052401221146FFF768FEFFF76CFA5D
S3150000DF401DB1404B1B685A0663D5354B3E485C678E
S3150000DF50FFF710FC374B98424FD9394B01249842B2
S3150000DF608CBF4FF000734FF0807333492C4A0C601E
S3150000DF70D2F8000120F080701843C2F80001FFF7C4
S3150000DF80F9F8304B1B685B063ED5304B304C596870
S3150000DF90266C41F67133C1F301412364FFF70EFA93
S3150000DFA00EB100232364002D7FF4F9AE284601212B
S3150000DFB0BDE8704000F006BC01200324BAE71E4B02
S3150000DFC0174A01211960D2F80031022043F080730C
S3150000DFD0C2F800310446ADE7174B114A01241C6014
S3150000DFE0D2F8003143F08073C2F800310320A1E774
S3150000DFF0002004249EE70724A0E700231C46B4E77C
S3150000E000074B00221A6770BD124A1368002BFCD119
S3150000E010BBE7104A1368002BFCD196E788400E40F8
S3150000E02000400E4080400E4084400E40AC08002068
S3150000E030002D31010048E8014000C8430816C843D6
S3150000E0400090D0033C300E4000250A0000300E4000
S3150000E05000000E40C800C643F8B5002A43D0304B36
S3150000E060304A12685C6A002924F0405444F0005398
S3150000E07014BF4FF0805400241C43FFF78DF8012194
S3150000E080054600F09FFB284B1B685B0643D5254BD6
S3150000E090264E5968376C41F67133C1F3014133643A
S3150000E0A02846FFF78BF90FB100233364204B9D42BE
S3150000E0B026D92048012185428CBF4FF000754FF0CC
S3150000E0C080751D4A164B1160D3F8000120F0807050
S3150000E0D02843C3F80001012211460220FFF796FDEE
S3150000E0E00F4B5C62F8BD0E4B5C6A24F0405451B98C
S3150000E0F0FFF752F8012100F065FB094B5C62F8BDA1
S3150000E10000252946DDE7FFF747F8012144F0805452
S3150000E11000F058FBDFE7094A1368002BFCD1B6E78D
S3150000E12000400E4000300E403C300E4000000E40D5
S3150000E1300048E8010090D0034000C843C800C64329
S3150000E14038B504461120FFF769FA012200210220A2
S3150000E150FFF75CFD174A257C536A1749207823F0A0
S3150000E1600103022D08BF43F0010353620860A38830
S3150000E170617AE58841EAC321D162136B207AA17ADC
S3150000E18003F07F630B43C11C43EAC5230F2943EA0F
S3150000E190C01328BF0F2143EA01731363A37B657B7A
S3150000E1A0E07B217B1B0143EA0533034343EA01433A
S3150000E1B0536338BD00400E40A004C843014638B53D
S3150000E1C01120FFF72BFA0C4D0C4BAA6B0C784878F4
S3150000E1D013401C438B78C978AA6B44EAC02444EAEE
S3150000E1E0036444EA0124A24205D000210846012224
S3150000E1F0FFF70CFDAC6338BD00400E4080E4FFF82D
S3150000E200EFF3108072B6704700B962B6704700BF70
S3150000E210EFF3108072B67047FFF7F6BF024B9B68AC
S3150000E22003EB80000164704700ED00E0F0B4049F4A
S3150000E2309DF8145053B1002465B1A14213D950F88A
S3150000E240246042F824600134A342F5D1074BF0BCA8
S3150000E2509A607047A14252F8246002D9002EF2D18A
S3150000E260EDE7002EEFD142F82470ECE700ED00E078
S3150000E2700E29436816D8012210B48A4047F2E004FA
S3150000E280224223F01F0306D041F0100119434160DA
S3150000E2905DF8044B704740F61F742242F6D15DF8D4
S3150000E2A0044B7047704700BF70B4056A046A036A7E
S3150000E2B0066ACE60102AC1E900548B6007D1046A51
S3150000E2C0026A036A006AC861C1E904428B6170BCD4
S3150000E2D0704700BF42EA032340F2011293425BD02B
S3150000E2E0B3F5817F14D340F2012293424BD030D94B
S3150000E2F0B3F5407F24D040F2013293423ED12B4BFE
S3150000E300D3F878311A0EC3F3074303600A607047E7
S3150000E310012B2AD00BD3B3F5807F2FD1234BD3F813
S3150000E3206C311A0EC3F3074303600A6070471F4B34
S3150000E330D3F86C31C3F30722DBB203600A6070477F
S3150000E3401A4BD3F870311A0EC3F3074303600A6001
S3150000E3507047B3F5007F11D1144BD3F87031C3F376
S3150000E3600722DBB203600A607047104BD3F87431A2
S3150000E370C3F30722DBB203600A607047002213462C
S3150000E38003600A607047094BD3F87831C3F307225C
S3150000E390DBB203600A607047044BD3F874311A0E7F
S3150000E3A0C3F3074303600A60704700BFB081E00F04
S3150000E3B0044B1B69C3F30443082B02D1024B034AE7
S3150000E3C01A60704700400E40AC080020C0EA2101E8
S3150000E3D0154B0228D3F8803122D003281ED00128FD
S3150000E3E014BFDBB2C3F307231B0323F4704241B906
S3150000E3F092B90E49CA6E22F470421343CB660120CD
S3150000E40070474AB90949D1F8E02022F47042134313
S3150000E410C1F8E03001207047002070471B0EE3E78B
S3150000E420C3F30743E0E700BFB081E00F00300E40C2
S3150000E4300E4B1A6852060FD41B685B0611D50C4B9F
S3150000E44019685A68C1F30121C2F3014291421A6860
S3150000E45003D822F010021A60704742F010021A60C8
S3150000E4607047044A1368002BFCD1E8E73C300E40A5
S3150000E47000300E40C800C6430F4A08B50F4BD2F80D
S3150000E48090201A601120FFF7C9F80D4B0D4A1B6842
S3150000E49010705B060AD50C4B0C485B6806490C4AA3
S3150000E4A0C3F3014303700B69136008BD094A13687F
S3150000E4B0002BFCD1EFE700BF00400E40CC1200203D
S3150000E4C03C300E40D612002000300E40DD120020F7
S3150000E4D0D8120020C800C6432E4B1B685B0670B5D9
S3150000E4E007D42D4B2D491A781023C2F1020293400E
S3150000E4F00B612B4B2B4DD3F88041264945F60E0276
S3150000E500C3F88021286840F2551202401A660B684B
S3150000E5105E0604F0010426D5204B1B68D80617D5E5
S3150000E5201F4AD2F84031D901FBD41F4E1F4B317818
S3150000E5301B68136105291BD01120FFF71FFC2B68F0
S3150000E540DB070CD51CB1164B0022C3F8802170BD29
S3150000E550154E31780529EFD12B68DB07F2D4104B25
S3150000E56002221A66EEE7124A1368002BFCD1D3E7A3
S3150000E570084B104A1B6810685A0606D5074B59689F
S3150000E580C1F30141FEF778FFE3E7094A1368002B60
S3150000E590FCD1F3E73C300E40DD12002000300E4087
S3150000E5A000400E40CC120020D6120020D8120020C7
S3150000E5B0C800C643AC080020704700BF704700BFC4
S3150000E5C010B50446F0B9FFF733FF104A136943F05C
S3150000E5D004031361FFF7F0FF30BFFFF7EFFF6CB9DD
S3150000E5E00B4B1B68DB0603D4BDE81040FEF7C2BD2B
S3150000E5F0FFF7DEFEBDE81040FEF7BCBDBDE81040EB
S3150000E600FFF76ABFFFF738FFDDE700BF00ED00E068
S3150000E61000300E4010B5044670BBFFF709FF184BDB
S3150000E620D3F88021D20748BF002245F60E004FF4EA
S3150000E6302071C3F88001196648BFC3F88021114ACA
S3150000E640136943F004031361FFF7B6FF30BFFFF70A
S3150000E650B5FF6CB90C4B1B68DB0603D4BDE8104054
S3150000E660FEF788BDFFF7A4FEBDE81040FEF782BDA9
S3150000E670BDE81040FFF730BFFFF7FEFECDE700BF55
S3150000E68000400E4000ED00E000300E40FFF7F4BE03
S3150000E690FFF722BF0A4B9A69996922F4403242F485
S3150000E6A0003241F440314AF6E85098609A61996127
S3150000E6B09A6199619A6199619A6199619A617047C3
S3150000E6C000300E40244B1A68520622D41B682DE9EE
S3150000E6D0F0415C061ED5214E7368C3F30143984290
S3150000E6E015D01F4B0446D3F800310D46FEF716FD34
S3150000E6F0C4F102071023022C804603FA07F71AD04A
S3150000E70037611DB1144B1B685A061ED56CB1BDE8A6
S3150000E710F0817047134A1368002BFCD10F4E7368C3
S3150000E720C3F301439842DCD1F1E721464046BDE8F8
S3150000E730F041FEF7A1BE2146FEF79EFE3761002D91
S3150000E740E5D0054B1B685B06E1D4064A1368002B2F
S3150000E750FCD1002CDBD1E8E73C300E4000300E4007
S3150000E76000400E40C800C64340B1134B1B7813B19E
S3150000E770124B98421BD90020FFF7A4BF10B5104BCF
S3150000E78082B0D3F800410191FEF7C8FC0A4B01990B
S3150000E7901B78C4F3042404FB000013B1074B984212
S3150000E7A008D9002002B0BDE81040FFF78BBF022059
S3150000E7B0FFF788BF0220F5E7DC120020002D3101AB
S3150000E7C000400E40034B1B685B0601D4FFF7CCBF2D
S3150000E7D0704700BF3C300E40054B01781868054A6B
S3150000E7E010F04000117000D070470121FFF7BCBF48
S3150000E7F03C300E40DC120020064942780B6823F4B8
S3150000E800407343EA0223022A0B6004BF024B5B6A91
S3150000E810704700BF00300E4000400E40244A4AF6C2
S3150000E820E85310B4546B5363936FDB07FCD4136C3B
S3150000E83013F0030322D01F4A0121834211601AD02C
S3150000E840032B02D1431E012B1FD9194A936FDB07F5
S3150000E850FCD4136C164923F00303034313648B6F34
S3150000E86013F00103FBD10030124A18BF0120012C1E
S3150000E870106000D14B635DF8044B70470028E1D16E
S3150000E8800C4B5DF8044B18607047094A4FF400239F
S3150000E890D362936FD907FCD4136C054923F00303A5
S3150000E8A043F0010313644B6A1A03FCD5CDE700BF9E
S3150000E8B000300E40B40AC6432DE9F04FA0F5E164DE
S3150000E8C089B00023B4F5966FCDE90233CDE9043360
S3150000E8D0CDE9063370D8514BB0F5E16FD3F8683106
S3150000E8E08CBF4FF0010A4FF0000A69D1C3F3072429
S3150000E8F0DBB2079404934FF4167B4FF49665DFF86A
S3150000E90020910191D9F84C60C6F30176044605A919
S3150000E91002A8334690465246FFF7DCFCD9F8E07071
S3150000E920C7F3012752463B4606A903A8FFF7D2FCC8
S3150000E930049A0799651B8B1A05FB03F3B3FBFBF3DC
S3150000E940D3182CBF01220022994235D3002A33D195
S3150000E950069903980A1A05FB02F2B2FBFBF210EBCA
S3150000E960020A2CBF01220022514525D322BB02995F
S3150000E970059A501A05FB00F5B5FBFBFB11EB0B0BDB
S3150000E9802CBF012100215A4516D3A9B9B8F1000FB1
S3150000E9900ED0D9F85C2022F4FE4222F0020242EAAE
S3150000E9A00323B4F5E16F1E4A18BF43F00203D36593
S3150000E9B0019B7BB9012000E0002009B0BDE8F08F83
S3150000E9C01C0EC3F30743079404934FF4966B4FF45E
S3150000E9D0E16594E730460021FFF7FAFC0028EBD00A
S3150000E9E038460121FFF7F4FC0028E5D00C4A536EA7
S3150000E9F0D34538BFD34623F4FF73BBF1E70F23F0AB
S3150000EA00010328BF4FF0E70BB4F5E16F18BF43F0E1
S3150000EA10010343EA4B035366CFE700BFB081E00F23
S3150000EA2000300E403A4B1A6FD96CC90730B402F069
S3150000EA3007020BD5012A57D9132852D9143813289F
S3150000EA408CBF4FF47F424FF4EE4207E0D96CCD07FE
S3150000EA503BD4012A51D9DB6C6FF0FF022C482D4DB7
S3150000EA60C36C2D4C23F47F431343C364C16C2B88C2
S3150000EA70C26CC1F303210131283301EB810503EB9D
S3150000EA805303B3FBF5F3013B072B22F0EE6228BFDD
S3150000EA90072342F4801242EA0363B4F90020C364F8
S3150000EAA0002A10DB036D4C08283204EB410102EB0F
S3150000EAB0520223F07004B2FBF1F3072B28BF0723A1
S3150000EAC044EA0313036530BC7047DB6CDC0711D5E1
S3150000EAD0012A0FD827288CBF4FF47F424FF4EE420D
S3150000EAE0BCE74FF44C52B9E7DA6CD10705D5DB6CBD
S3150000EAF0DB07EFD46FF0FF02B0E70928F1D90A3837
S3150000EB0009288CBF4FF47F424FF4EE42A6E700BFC0
S3150000EB1000300E40D2120020D4120020C288F8B570
S3150000EB2004464A2A8088B4F90C7005D9B2F5FA7FF2
S3150000EB3052D24FF0805500E000253349334ECB6C5E
S3150000EB40334A23F0405323F00103002FA8BF43F0BC
S3150000EB5001032B43CB64D1F8E03043F44073C1F892
S3150000EB60E030CB6E308043F08073CB661368002BA9
S3150000EB703BD113680B6F23F007030B67FFF752FFB8
S3150000EB80244B25492589B4F90C20A0881A800D80CC
S3150000EB90FFF748FFA37B002B31D0012B18D00122B1
S3150000EBA011466088FFF788FE054678B1164A6078F8
S3150000EBB0D36B43F48063D363FFF730FEA37A174A1F
S3150000EBC0A3F12003B3FA83F35B0913602846F8BD6B
S3150000EBD00D4B134A9A65E2E740F6C3139A428CBF7F
S3150000EBE04FF040554FF00055A7E713680B6F23F021
S3150000EBF0070343F004030B67FFF714FFC0E7024B5C
S3150000EC00084A9A65CBE700BF00300E40D0120020BC
S3150000EC108009C643D4120020D21200209407C643AE
S3150000EC20372110B777402057054A064B06491B681F
S3150000EC30136F23F00703184310670888FFF7F2BE27
S3150000EC4000300E408009C643D0120020F0B44400C4
S3150000EC504AB12718214D3F0101263D448E40A3B3FA
S3150000EC6005F1C0652E6025182D0105F1804507299F
S3150000EC7005F5204519D88F006E684FF00F0C0CFA79
S3150000EC8007FC26EA0C0602FA07F73E436E6052B905
S3150000EC900444124A24010120224400FA01F1C3B9B6
S3150000ECA002F180621160F0BC704701F18046083EB7
S3150000ECB0AF68B6004FF00F0C0CFA06FC27EA0C07FB
S3150000ECC002FA06F63E43AE60E1E705F180652E6086
S3150000ECD0C9E702F1C062F0BC116070470CA00040A9
S3150000ECE070B50446006804F1806620F44070206028
S3150000ECF003F003054FF4407004F1C063306028024E
S3150000ED0082B0186029B9164B9C421AD0154B9C420A
S3150000ED101ED0154B20685B5D02FB03F35BB16FEA07
S3150000ED20C20220681A441144B1FBF3F1830701F1D2
S3150000ED30FF3102D4216102B070BD002908BF012154
S3150000ED40F8E70A480192FEF715FD019A0146E0E749
S3150000ED5007480192FEF70EFD019A0146D9E700BF6A
S3150000ED6000C0004000C40040E8F302000062040056
S3150000ED700072040070B500F10474E4004A78631C64
S3150000ED800D469B000021016482F001020649C16321
S3150000ED901A60AA681AB12B7B6968FFF7A1FFA40065
S3150000EDA02B78236070BD00BFFFFF07008A4A9042A0
S3150000EDB003461DD002F58062904240F0D780874A14
S3150000EDC02DE9F04194684025052600274FF0030CF5
S3150000EDD0596B11F4C06F40F0CC801078082800F20F
S3150000EDE0AF80DFE800F0187029354A56858C070099
S3150000EDF07B4AE5E7C9051CD54FF48070D863092125
S3150000EE0092F90100117000210128196401D1517095
S3150000EE100846BDE8F08160882188C50640F19A80E1
S3150000EE20090A01F0060141F0F00101201070D962D3
S3150000EE3058600120BDE8F081080600F1AD80480663
S3150000EE40F7D56188DD63890757D582F800C0BFE72B
S3150000EE5060882188C50643BF090A01F0060141F012
S3150000EE60F00101F0FE01440748BF41F0010104240E
S3150000EE70012014705860D962DBE7080600F18C8027
S3150000EE804806D6D56188DD63490736D50723137052
S3150000EE90CFE71179508804EBC10EBEF80880804593
S3150000EEA000F28B800131C9B211716088578010F071
S3150000EEB0040FCAD1C00701D4012989D9082002212B
S3150000EEC010705960B5E7080666D44906B1D5618861
S3150000EED0DD63C8067AD489070FD5117904EBC1041E
S3150000EEE00720218910700129A3D108225A60A0E7C2
S3150000EEF0080651D449069CD5DD63167068E7880676
S3150000EF0097D511795088DD6904EBC10421898142C6
S3150000EF1027D96468461C568025545088814220D9DA
S3150000EF20042401295C6004D90139884201D10821F1
S3150000EF305960117809297FF47CAF92F9010062E7E4
S3150000EF40FB2409200021107054706FF0040019642E
S3150000EF50BDE8F08101F0FE01840748BF41F00101E0
S3150000EF6063E70129AAD108215960A7E76FF00300DA
S3150000EF70704711F4007408D00920FD240021107098
S3150000EF8054706FF00200196443E74E050DD4092151
S3150000EF90117092F9010036E78025FF24082002212E
S3150000EFA0DD6354701070596043E7FE2009215070EC
S3150000EFB011706FF001001C642BE7DEF80410441C8E
S3150000EFC05480095CD9620623137032E72178022047
S3150000EFD01070D9622DE700BF00C00040EC1200207F
S3150000EFE0E01200201D4B984232D003F58063984210
S3150000EFF030D11B4B8268D20748BF202230B448BFAD
S3150000F00042604A88950701D50C89ECB1540718D49B
S3150000F01000220125C0241A705A801A7199605D7009
S3150000F0204460C368DA0503D5C369C368DB05FBD44E
S3150000F0300C4BC363036C43F4FC63036430BCFFF7FF
S3150000F040B5BE0A8A002AE3D16FF0030030BC7047D0
S3150000F050054BCFE76FF00300704700BF00C00040CC
S3150000F060EC120020FFFF0700E012002029B370B465
S3150000F070134C0025082650F8043BA361E660E369BB
S3150000F080DB0705F1010508D50E4B00E06BB1E2691F
S3150000F090D20703F1FF33F9D43BB1E3699B0708D4E8
S3150000F0A08D42E8D1002070BC70476FF0020070BC42
S3150000F0B070476FF0010070BC70470020704700BFBA
S3150000F0C000000E4080969800054A064B516852682B
S3150000F0D041F671321A649A6822F001029A6070470A
S3150000F0E000300E4000000E40034B9A68002122F0CB
S3150000F0F001029A601964704700000E402DE9F84F2E
S3150000F100294C2A4B256C41F6713626645E685B688D
S3150000F110A368960843F001031FFA85F8A3602BD075
S3150000F1200746894600254FF0010AE369D90707EB30
S3150000F130850008D51E4B00E07BB3E169CA0703F1E1
S3150000F140FF33F9D44BB32061C4F80CA0E3695B0725
S3150000F15026D4C0F30A00C0F500608008A6EB050BB4
S3150000F160834516D259464846FFF780FF28B95D44C5
S3150000F17009EB8B09AE42D8D800200B4A936823F0DE
S3150000F18001039360B8F1000F01D000231364BDE8BA
S3150000F190F88F0028EED08346E4E76FF00200ECE734
S3150000F1A04FF0FF30E9E700BF00000E4000300E4090
S3150000F1B080969800334B344A196C10B441F671347A
S3150000F1C01C64546852689A68012442F001029A60ED
S3150000F1D01861DC60DA69520788B209D59A6822F0AC
S3150000F1E001029A6000BB4FF0FF305DF8044B704798
S3150000F1F00222DA60DA69D4071DD5244A01E0002A22
S3150000F2002ED0D969C90702F1FF32F8D4DB69990714
S3150000F21014D442B31B4A936823F001039360002879
S3150000F220E3D000201064E0E700224FF0FF301A64BC
S3150000F2305DF8044B7047DB699C07EBD5114A936870
S3150000F24023F00103936030B100236FF001001364D3
S3150000F2505DF8044B70476FF001005DF8044B704792
S3150000F260DB699B07EAD4074A936823F0010393609E
S3150000F27020B1002313646FF00200B6E76FF00200BE
S3150000F280B3E700BF00000E4000300E4080969800A5
S3150000F290FFF734BF014B01229A60704700500E40C1
S3150000F2A0144A154B0021F0B408465568134F03F174
S3150000F2B0480601220FE0B2F5006F16D0B2F5803F86
S3150000F2C013D02A4202D0294208BF10430833B34262
S3150000F2D00ED053E902213C686407F2D4B2F5806F80
S3150000F2E003D0E8D8B2F5007FEBD141F48071E8E7AE
S3150000F2F0F0BC704700500E40F4F30200E841E00F06
S3150000F30030B48B784C780A78CD789B0143EA840335
S3150000F31013430C794A79897943EA051343EAC423EE
S3150000F320043043EA02330001024A43EA41431350E0
S3150000F33030BC704700200440014B1860704700BF86
S3150000F34000008442437941780278F0B40479C779A1
S3150000F3508678C5781B0343EA0423002943EA02039F
S3150000F3600CBF002104218479027A002E43EA074368
S3150000F37043EA01030CBF00211021002D43EA0103DB
S3150000F3800CBF00212021002C43EA01030CBF002101
S3150000F3904FF400410B430AB143F40033014AF0BC79
S3150000F3A013607047002004400B4A536911699B00A3
S3150000F3B003F03C03C1F381110B438370136903F01F
S3150000F3C03F0343709369D26903F0F003C2F303125B
S3150000F3D013430370704700BFD0FF0FE0344A70B587
S3150000F3E004460023334840F6AA660D46944241F28D
S3150000F3F00501E66023606160A3606361E364A06465
S3150000F40023666367A367E3674AD002F58062944286
S3150000F41042D002F58062944242D0A3652A8AA87B34
S3150000F4202368297D42F00102002843EA02030CBF4B
S3150000F43000224FF4806213432360236809B143F02E
S3150000F4400053AA7C23601AB1EB7C43F08003A365CA
S3150000F4502B7BD5E9010643F48053636018B36B7BBD
S3150000F46001387600B0FBF6F0000260610BB11023A4
S3150000F470E3606B7D1BB1236843F480332360AB7D6F
S3150000F480EA7D29781B07120503F0E04302F4E00247
S3150000F49013432366E16070BD2365A365E365BDE79D
S3150000F4A000232365B9E70448FEF764F9D7E700BFF0
S3150000F4B000000140F9FF010040410500134A1449CC
S3150000F4C0002330B4904240F6AA6541F20504C560B7
S3150000F4D00360446083604361C36481640366436779
S3150000F4E08367C3670FD002F58062904206D002F5AB
S3150000F4F08062904207D0836530BC7047036530BC9C
S3150000F5008365C365704700230365F4E70000014087
S3150000F510F9FF010003695A06FCD5416303699B069E
S3150000F520FCD5C069C0B2704703695B06FCD5416370
S3150000F530704700BF03695B06FCD5C163704700BF17
S3150000F5402DE9F04F5D4C87B026680292002E00F040
S3150000F5509B805B4D6A7C002A40F0A880DFF864B18E
S3150000F560BBF806401F46AB68214489B2DB0800930E
S3150000F570019101FB03F3002F6CD0DFF84CA11E4470
S3150000F58090464FF001093FE0012A51D0072C6AD975
S3150000F59000220492D908721813F0070E039212D0B3
S3150000F5A009FA0EF2D2B216F801C0049B5042013A93
S3150000F5B018400CEA020202437254039AAEF10803A1
S3150000F5C0013203921C44E30862D1039904980A7835
S3150000F5D009FA04F4E4B26342013C204004461340B5
S3150000F5E01C430C70019B43445A1103F01F035AF845
S3150000F5F0221009FA03F30B4300994AF822300E440D
S3150000F60008F1010800202FB3BBF808402A7C241A11
S3150000F610BC4228BF3C46012AA7EB0407E2D8BBF848
S3150000F6200430029903449BB20029ADD1012A18D0B7
S3150000F630072C13D81C449C42D4D9D90803F00702DE
S3150000F640705C013309FA02F29BB20243A342725480
S3150000F650F3D3C7E7002007B0BDE8F08FFF2204927E
S3150000F66098E7072C26D81C449C42BBD9D80803F03F
S3150000F6700701325C013309FA01F19BB222EA010269
S3150000F680A3423254F2D3ADE7012007B0BDE8F08FB4
S3150000F6901A46DDE9030105931EF041FF039A059B17
S3150000F6A01A44B4EBC30403929CD08EE70A2007B039
S3150000F6B0BDE8F08F029A04926CE700BF3413002075
S3150000F6C004130020F81200209C3A0020044B1B78FB
S3150000F6D01BB1044B0360002070470120704700BF38
S3150000F6E030130020F812002070B40F4C2478A4B117
S3150000F6F00E4C25888618AE420CDC6588CE18AE42C4
S3150000F70008DC6AB163B1A080E180228163810020B8
S3150000F71070BC7047042070BC7047012070BC7047F5
S3150000F720052070BC704700BF30130020F81200207F
S3150000F730064A30B41478039D24B11A462B4630BCD1
S3150000F740FFF7FEBE012030BC704700BF301300201B
S3150000F750F8B50D4CA669A6B10C4FE268616805467E
S3150000F7603B462046B0473A684AB1094B2A604FF0FB
S3150000F770FF32C3E90022C3E902220020F8BD0B20B4
S3150000F780F8BD0120F8BD00BF04130020341300208B
S3150000F7909C3A0020F8B5194D2B7813B10024204669
S3150000F7A0F8BDFCF7E3FF04460028F8D1144E3146B5
S3150000F7B0FCF7F6FF04460028F1D1124F3846FFF752
S3150000F7C0C7FF04460028EAD13B68A3B17268F16816
S3150000F7D00D4E8FB293B21A46394607FB03F33280B9
S3150000F7E001277180328171810246014670602F7057
S3150000F7F0FFF7A6FED3E70B24D1E700BF30130020A6
S3150000F8000413002034130020F81200202DE9F04FD5
S3150000F8102A4BDFF8B0A0DFF8A8B0DAF80040DFF82E
S3150000F8209C90D3E9022385B04FF0000CD7086146BF
S3150000F83065464FF0010803970AE00CF1010C01EB55
S3150000F8400C05EA060ABF5AF82840640808F10108C0
S3150000F8509D4217D214F001024846EED1BCF1000FCA
S3150000F8602AD0164BDBF80070039E5B68CDE9001CBE
S3150000F87001FB0671114E376AB847D0B9691C844638
S3150000F880F368DCE7039FBCF1000F0DD00C4A0B4B6D
S3150000F89012685B68CDE9001C01FB0721074A146A60
S3150000F8A010460022A04720B90020CAE90000CAE994
S3150000F8B0020005B0BDE8F08F0131C0E70413002057
S3150000F8C0341300209C3A002030B10268002153888E
S3150000F8D012880846FFF708BF05207047E0B130B52B
S3150000F8E083B004464568FFF7EFFF014610B10846AE
S3150000F8F003B030BD226814895389EAB203FB04F3CE
S3150000F900CDE90023C5F30723C5F30742FFF710FF30
S3150000F9100146084603B030BD05210846704700BFC2
S3150000F92058B1D0E90523018A8089013301325B1A77
S3150000F930121A9BB292B2FFF7D7BE0520704700BFDE
S3150000F94000B3F9B10B688A68934216DAF0B44D68D1
S3150000F950C9688D4218DA002B11DB002D0FDB066813
S3150000F9603788BA420BDA7688B14208DAC0E903353D
S3150000F970C0E90521F0BCFFF7D3BF04207047032080
S3150000F980F0BC7047052070470420F0BC704700BFEC
S3150000F99030B587B018B300226FF07F43C0E901236A
S3150000F9A0044601A8FFF792FE054610B1284607B0A7
S3150000F9B030BD019B23601A885B880290013A013BA7
S3150000F9C002A92046CDE903520593FFF7B9FF054684
S3150000F9D00028EBD12046044900F062F9E6E7052548
S3150000F9E0284607B030BD00BF64F70200D0B170B53D
S3150000F9F0044682B00C3016460D4600F033F810B9B6
S3150000FA00012002B070BDA2680124D3B20093B1B246
S3150000FA10C2F30723A8B2C2F307420194FFF788FE98
S3150000FA2002B070BD05207047C8B170B50C3082B009
S3150000FA3016460D461C4600F015F810B9012002B016
S3150000FA4070BDE3B20122CDE90032B1B2A8B2C4F36F
S3150000FA500723C4F30742FFF76BFE02B070BD052013
S3150000FA60704700BF78B103688B420BDC83688B421A
S3150000FA7008DB4368934205DCC0689042B4BF0020AF
S3150000FA8001207047002070472DE9F04F90F828506C
S3150000FA9085B0022D9DF838808CB200F09680203C0F
S3150000FAA0A1B20091018C009CA14240F2998090F88D
S3150000FAB02510C4690294002947D09A46039390F80A
S3150000FAC02430019207464FF0000BC2F1010997F866
S3150000FAD02220012A75D0022A23D1029A009932F8EF
S3150000FAE01160002B00F08780019D0BE0B8F1000F3C
S3150000FAF01CD109EB0504A4B2A3424FEA560605F150
S3150000FB00010526D9F207F1D5524629463846FFF7B0
S3150000FB106DFF01281AD808B90BF1010B97F82430AC
S3150000FB20E7E7029A009952F82160DAE77B685246C5
S3150000FB3029463846FFF778FF012807D897F824307A
S3150000FB400028D6D10BF1010BD3E7012005B0BDE8A3
S3150000FB50F08F214697F82700C2188A4209DD019ED8
S3150000FB604546DDB90134A4B21A1894422146F8DBA1
S3150000FB70A846039A97F82310009C97F82500C2F12F
S3150000FB80010252440C4492B2A1B2904200910AF191
S3150000FB90010A9CD8BBFA8BF04009D7E731447B6851
S3150000FBA052463846FFF740FF0128CFD897F8243051
S3150000FBB010B197F82700D5E797F827000BF1010B4E
S3150000FBC0D0E7029A0099565C8BE73A2910D0202993
S3150000FBD00AD10B210091009C018CA1423FF667AF30
S3150000FBE0022005B0BDE8F08F303CA1B2009159E784
S3150000FBF00A21009156E719461C46ABE72DE9F04F5E
S3150000FC0083B0DDF830809DF83490002841D000297B
S3150000FC103FD090F82840C4B3002A3ED0571E054670
S3150000FC209B460F444C1E1E464FF0000A13E0BEF1E1
S3150000FC305E0F2AD8CDF80090FFF726FF012825D8B9
S3150000FC4008B90AF1010A95F8243095F82720A74249
S3150000FC5013441E4413D014F801CFBCF10A0F3246E8
S3150000FC60434661462846ACF1200EE0D195F8253092
S3150000FC7095F826209844A74290445E46EBD1BAFAFE
S3150000FC808AF0400903B0BDE8F08F022003B0BDE85A
S3150000FC90F08F052003B0BDE8F08F0120F6E700BF26
S3150000FCA070B100F11C0369B170B4CA680E684D6882
S3150000FCB08C68C6615D609C60DA60002070BC70472D
S3150000FCC005207047C161052059609960D960704769
S3150000FCD070B4124E41613368A3B1002500E023469B
S3150000FCE05A698A4200D98AB99C68891A41611D46B7
S3150000FCF0002CF4D19860846014B16369591A61616B
S3150000FD0070BC70473060836070BC704715B9306056
S3150000FD101C46F0E71C462B46ECE700BF48130020C4
S3150000FD2010B500F0C1F90A4B1B6873B1094C59694B
S3150000FD302268821A914203D38A1A5A61206010BD42
S3150000FD40401A002220605A6110BD024B186010BD97
S3150000FD50481300203C130020074A084B12681B6812
S3150000FD6010B5546902201C4400F0C2F92046BDE8D3
S3150000FD70104000F09FB900BF481300203C1300203C
S3150000FD80F8B59DF81C70BDF8206007711546002770
S3150000FD90069A87600446C0E90335C6800260B1B999
S3150000FDA041610BB1114698477DB1FEF731FA06461F
S3150000FDB0FFF7B6FF29462046FFF78AFF064B1B686A
S3150000FDC0A34206D03046FEF727FA0020F8BD0D46BE
S3150000FDD0EBE7FFF7C1FFF5E7481300200E490A6875
S3150000FDE0AAB1824203D114E0984206D01A4693681B
S3150000FDF0002BF9D108B102207047836893608368AD
S3150000FE001BB141695A690A445A61002070470028AB
S3150000FE10F1D183680B60F3E74813002070B5114DEC
S3150000FE20FEF7F6F92C780646BCB90F490F4A104B77
S3150000FE300C6014601C7000F0F7F8012000F058F90F
S3150000FE4000F08CF92346024640F2E73109481EF0DD
S3150000FE5063F9094A012310602B703046FEF7DCF97E
S3150000FE60002070BD38130020481300203C130020EA
S3150000FE704413002018FCFFFF40130020F8B5C8B15A
S3150000FE800446FEF7C5F9144D0746FFF749FF2E68ED
S3150000FE90A64212D02046FFF7A1FF044628B93846ED
S3150000FEA00024FEF7B9F92046F8BD3846FEF7B4F946
S3150000FEB02046F8BD22242046F8BD022000F026F98F
S3150000FEC03046FFF78BFF04460028EED12B68002B47
S3150000FED0E5D0FFF741FFE2E7481300202DE9F043A4
S3150000FEE085B09DF83080BDF8349088B11F4616461F
S3150000FEF004460D46FFF7C2FFCDE901890097334658
S3150000FF00294620460022FFF73BFF05B0BDE8F083F7
S3150000FF10222005B0BDE8F08300F0C6B8C2072DE97F
S3150000FF20F84F044666D4A30701D4BDE8F88F3B4FCB
S3150000FF30DFF8F08000F0B8F83A680646851AFEF752
S3150000FF4067F9D8F800408246002C5DD06269954278
S3150000FF5062D34FF000093E602346294600E05A6905
S3150000FF608A4209D8187994F804C0844588BF1C468B
S3150000FF709B68891A002BF2D15046FEF74DF9D4F84A
S3150000FF8014A0C4F81490FEF743F983462046FFF701
S3150000FF9025FF5846FEF740F9236903BBE36813B112
S3150000FFA021682046984700F07FF80AEB0602AA1A55
S3150000FFB083468518FEF72CF9D8F8004082461CB314
S3150000FFC06269AA425E46C6D9521B6261C7F800B092
S3150000FFD0FFF7C2FE5046BDE8F84FFEF71DB9FEF723
S3150000FFE017F9216983462046FFF772FE5846FEF749
S3150000FFF013F9D3E70A4A13780133DBB21370FFF71C
S315000100008FFEFFF7A9FE8EE7022000F07FF850462B
S31500010010BDE8F84FFEF700B9B346D5E73C1300201B
S31500010020441300204813002010B51B4B93E807002A
S3150001003086B00C3303AC03C493E803000B0C0190A8
S31500010040ADF808101548227001218DF80A300024F8
S31500010050FDF720FA03A88DF80C408DF81040FFF744
S3150001006071F901A90120FFF74BF90D4A536A23F4EF
S31500010070FF6323F0070340F2FF715362012011620F
S315000100809460FFF759F9074B4FF00042C3F88021FE
S315000100901A6006B010BD00BF94FA0200A009140050
S315000100A00020044000E100E0014B9868704700BF62
S315000100B0002004400D4B9A68596D9B695B0702D479
S315000100C08B1A022B0ED9831A012B98BF901C074B52
S315000100D0B0F1FF3F28BF013058655A6A42F0040269
S315000100E05A6270479142EED0704700BF002004402B
S315000100F08207054A00F00103516A48BF43F0040331
S315000101000B435362704700BF00200440054900F0CD
S31500010110010283074B6A48BF42F0040223EA020345
S315000101204B6270470020044010B5FEF771F80A4B88
S315000101309B695A07084A044603F0010003F00703C6
S3150001014048BF40F002001362FFF7E8FE2046BDE813
S315000101501040FEF761B800BF002004400148FDF7DA
S3150001016009BB00BFA0091400084600F09FBF08465E
S3150001017000F09EBF70470000F7B506460C46174DC6
S3150001018039B90A46072106F03DFAC5E9004403B02C
S31500010190F0BD134B07271F600B792B7002A84B7913
S315000101A040F8043D012106F049FA019BC2B2D34051
S315000101B000F00F0040EA03106870A379AB70E37991
S315000101C0EB7023686B602379064A013393613946E4
S315000101D03A46304606F016FAD9E700BF3C1F002121
S315000101E004000844000008402DE9F34BDDE90A67E5
S315000101F0D0E93689044689EA070188EA060001EA58
S31500010200030C00EA020B8CEA09018BEA0800C4E937
S31500010210360122F0010006EA000807EA0309002573
S315000102201946CDE9005549F0800348F0004205F032
S315000102305BF92378DB0720D5D4E93623002003F0C8
S31500010240800150EA010318D04FF48031204601F0B5
S315000102509BFF237865F300032370D4E9362302EA72
S31500010260000503EA010655EA060306D005492A46B2
S3150001027009683346A4F10C008847002002B0BDE8A6
S31500010280F08B00BFB8080020034A0368002B08BFA3
S315000102901346024A1360704775010100B808002031
S315000102A031F00F0001BF054A136801F00F0123F079
S315000102B00F0306BF0B43136001207047441F002143
S315000102C0014B002059607047441F0021F8B50328EF
S315000102D020D8DFE800F01D02161900242546012664
S315000102E0FDF78EFF29460746304605F015FC3046D8
S315000102F02246294605F06AFC3846BDE8F840FDF776
S3150001030083BF00240125EAE7012425462646E7E7BF
S315000103100024FAE7F8BD00000F4B5B68C3F30363E3
S31500010320013B0B2B0DD8DFE803F01414061414144B
S3150001033014080A080808032070470420704705209E
S315000103407047064BDB6813F0060F14BF042001202B
S3150001035070470220704700BF004008400050084027
S31500010360044BD3F8883013F0A00F0CBF01200020F6
S31500010370704700BF004008407FB51546B0F8902091
S315000103802B792968012B1BD18A421ED8891A1A1C7E
S3150001039018BF01222C7B022C19D00034AB6818BF80
S315000103A00124AE7B003618BF012602966D7BB5FA95
S315000103B085F56D09CDE9004505F0D6FA04B070BDA5
S315000103C0022BE3D11A460021E4E70021DFE70023EF
S315000103D0E7E700000138C0B202289CBF0F4B53F873
S315000103E020200F4B4FF06051196003F1007388BF55
S315000103F000221A604FF400121A600A4A136F23F0A2
S31500010400060343F004031367074B4FF0805119604D
S315000104100423C2F884300020704700BFA8FA020006
S31500010420186008440000084094400846114B1B78A8
S3150001043013B1114B06221A60104B0022C3F8842017
S315000104400F4B4FF080521A600E4BD3F8883013F4DD
S31500010450800F0D4B09D1C26912F0800F18BF0B49ED
S315000104604FF4001214BF0A601A604FF060521A600E
S315000104700020704750130020700008440000084017
S315000104809440084400400840186008441860084633
S3150001049070B51446C26982EA04030B40534006460E
S315000104A0C36108070D4606D514F0080F14BF424A6A
S315000104B0424A08231360E90706D514F0010F14BF59
S315000104C03D4A3E4A012313606A070CD505F00AFB33
S315000104D014F0040F14BF3A4A3A4A4FF400731360FA
S315000104E0394B04221A60AB0706D514F0020F14BF6C
S315000104F0314A324A02231360E80606D514F0100F7A
S31500010500324B14BF00221B22DA6429061FD52206AC
S315000105102DD52F4B4FF400121A6003F17E43E033C1
S3150001052001221A60FDF76CFE2A4B5B68C3F3036375
S31500010530032B06D1284A136823F0F00343F0E003A6
S315000105401360224B40F201225A62FDF75DFE15F05F
S31500010550600F29D004F0600404EA050140291E4B0E
S3150001056024D0602914D0202923D1012218E0194B67
S31500010570D3F888305B02EAD496F88430174A4FF4F0
S3150001058000111160002BE2D0154B01221A60DEE743
S31500010590326F72B1116801290BD9526942F0010219
S315000105A01A610C4B80229A60002070BD40F2011244
S315000105B0F6E70022F4E700BF440008464400084479
S315000105C01C6008461C600844884008440000084036
S315000105D01860084600400840441F0021186008447E
S315000105E0F8600846014B1868704700BF443C00207C
S315000105F013B5012300240022CDE90034002310465F
S31500010600194604F071FF022003F0C6F8014B1C6085
S3150001061002B010BD7813002002292DE9F743804668
S315000106200E461546994603D1FFF7E2FF002026E064
S31500010630154CFDF7E5FD226807460AB1AA4221D10C
S31500010640124A25600123C2F800900022CDE9003349
S3150001065000231046194604F047FF0D4B00221A707D
S31500010660B21A18BF01224146022003F061F905467C
S315000106703846FDF7C9FD002DD8D12560012003B00C
S31500010680BDE8F0830025F3E7781300207C130020F2
S3150001069076130020044BDB6D5B055ABF034B1878BC
S315000106A0012000F001007047005008407613002039
S315000106B0022003F081B80000014B986903F086BC63
S315000106C000600840036F53B11A68022A07D9586AB5
S315000106D0C0F3072030B11B6AB3FBF0F070470C384A
S315000106E001F07DBA70470000014B986903F098BC90
S315000106F000600840026F62B11368022B09D9536A80
S31500010700C3F3072040B1126ADBB25343B3FBF0F0E7
S3150001071070470C3801F067BA70470000064BD3F8F2
S3150001072030311B0401D4FFF7E5BF0A78034B0448B7
S31500010730012A18BF184670470060084020A107002B
S3150001074048E8010010B5054A4B780C7810881B065D
S3150001075043EA044303431360002010BDF01E002149
S31500010760054803681A0C0B78120413434A7843EAC6
S315000107700223036000207047F01E002103F0B0BC85
S3150001078070B5044600F1A8060868C4F8A8008B886D
S31500010790A4F8AC308B88C4F80831FF23637108468E
S315000107A002F0C4FE054670B9304602F0EFFB05467D
S315000107B048B9204602F0DAFD0121A4F8AC0004F1A3
S315000107C0800004F097FA284670BD38B5054690F8C2
S315000107D0A80003280C4613D0FF2913D002F060FCB1
S315000107E0A04204D895F8A80002F05AFC04466C71A0
S315000107F0204602F007FDA0F1FF035842584138BDDB
S315000108000220FCE70120FAE710B590F8A830032B87
S31500010810044628D00171C06E10B3E36F1BB994F87A
S31500010820B4308B4205D3B4F9F620B0F912309A42AE
S3150001083010DD002294F8B4102046FFF7C6FF88B9F0
S31500010840E066204601F046FB01462046BDE8104021
S3150001085001F0F0BA20460022BDE81040FFF7B5BF0F
S31500010860FF23637110BD0220FCE750F8A83F0B601F
S3150001087083888B800020704790F8A830032B14BF23
S315000108804079FF207047F8B51C46154607460E46C7
S3150001089003F0F2FF87F8B000A9896B682360761A26
S315000108A0268103F031FBAB6897F8B020000BC0EB53
S315000108B08040B0FBF2F0B3EBD01F88BF21682289DC
S315000108C091BF636003FB02112160002188BF616053
S315000108D03F2A08D9216890099B0100FB031302F006
S315000108E03F0223602281F8BD2DE91848436A012B96
S315000108F0044602D10020BDE818882C4BDB6803674B
S3150001090039B1002104F1B80004F0CAF868B1022037
S31500010910F1E703F0A5FFD4F8B8309842F1D103F01E
S31500010920A5FFD4F8BC309842EBD10121B4F8C00040
S3150001093004F05AF823781E4A6FF300032370E36E1E
S3150001094011685B694A1C1B6811D0581C11D12046DD
S3150001095002F0ECFAD4E93623002003F0800150EAD4
S3150001096001030DD1237843F001032370C2E7591C1B
S31500010970F0D09A1CBED01946204602F0D7FAB9E744
S315000109804FF48031204601F0FFFBD4E9362302EA19
S31500010990000B03EA010C5BEA0C03ABD005495A468E
S315000109A009686346A4F10C008847A3E7EC1F002100
S315000109B008090020B80800204FF4807105F034BE04
S315000109C037B50DF106020D4602F09EF9044688B1CF
S315000109D085B12B7813F0F70F0CD0FDF711FC074BFF
S315000109E0BDF806201C60064B1A80064B6A881A80E1
S315000109F0FDF70AFC204603B030BD00BF54130020AA
S31500010A0058130020521300202DE9F34706461546D8
S31500010A10084619B9012002B0BDE8F087002AF9D0CD
S31500010A20022905D80022114602F06EF90028F1D0FC
S31500010A30038882781C0402F0070100F18480A1F189
S31500010A40070C077990F80590C488DCF1000040EBAB
S31500010A500C00052928738CBFC2F3001000206873AF
S31500010A60C2F380102874C2F3C000C2F34012687446
S31500010A70AA74002F35D196F8A220013AEA74F269D8
S31500010A80D2065AD40639012957D8304A3048D26C91
S31500010A90063B9BB20622694601F098FFE3049DF9E5
S31500010AA00080C4F30B071FD49DF801004400E0B297
S31500010AB0B36F0BB141469847E87385F80E806A7C9F
S31500010AC0DDF80210304604F079FA28607378042BB9
S31500010AD003D1042F9CBF0330286001232B72002011
S31500010AE099E7013FEF74CAE7336FFC008BB11A68CF
S31500010AF0022A0ED95B6A13F0FF0301D0B4FBF3F4AB
S31500010B00A14516D8BCB1C9EB0929B9FBF4F4E443F4
S31500010B10CDE73046FFF7D6FD05F111018246304695
S31500010B20FFF7FCFD0028EBD00AFB04F4B4FBF0F45C
S31500010B30E6E70020BCE72046BAE700208023EB81E8
S31500010B402860287267E7022065E700BF00000840B9
S31500010B503010084038B50C461131FFF7DFFD054668
S31500010B6004F010FA431C01460AD00022284604F07C
S31500010B70E5F92368181A022320602372002038BD84
S31500010B800220FCE7B3FA83F3192B084610B5114688
S31500010B9010D0C3F11902D2B2062A28BF0622931D2C
S31500010BA001249C40A4B2A14228BF214601F092FE35
S31500010BB0204610BD0022F2E708461188B1FA81F1FC
S31500010BC0192910B50DD0C1F11901C9B2062928BFDD
S31500010BD006218C1D0123A340138001F097FE0020FE
S31500010BE010BD0021F5E70000094B0121D3F8EC20E7
S31500010BF0996203F18063243352074FF4005119605F
S31500010C0041BF03F10073C83304221A60704700BF65
S31500010C10001008402DE9F34180460C4615461F4653
S31500010C2000F0B9FD0646002F6FD04046FFF7DCFF06
S31500010C3046B14D4B02A91B6E41F8043D0422002327
S31500010C40FFF7E8FF98F80130002B5ED0474E0023EE
S31500010C503362474B40F6FF721A60B76A3B0773D59A
S31500010C602178607817F480670CBF4FF0030C4FF0C2
S31500010C70020C11F020030CEB00025DD1072914D1FF
S31500010C80A37813F03F0310D0E37813F0010F14BFDC
S31500010C900A21042113F0020F0CBF4FF0000E4FF092
S31500010CA0060E13F00403714447D1511E01380CF1AD
S31500010CB0FF3CC6E906011944C6F814C0716223B1A6
S31500010CC0032A8CBF03F1FF33002333624FF4FA503A
S31500010CD0D31D5843002F34D0264B40F27121032AED
S31500010CE094BF0A461A4602F581425832104403F06F
S31500010CF08DFF214AF0623168D2F8FC30096823F091
